:100000000C942A000C94FF0E0C94290F0C94970F5B
:100010000C9447000C9447000C9447000C94630F19
:100020000C9447000C9447000C9447000C94470034
:100030000C9447000C9447000C9447000C94470024
:100040000C9447000C9447000C9447000C94470014
:100050000C94470011241FBECFE5D8E0DEBFCDBF12
:1000600010E0A8E6B0E001C01D92A337B107E1F7A8
:1000700010E0A0E6B0E0E2E0F0E202C005900D92F0
:10008000A836B107D9F70E94AB0C0C94FF0F0C9463
:100090000000EF92FF920F931F937B018C0120E0F1
:1000A00030E040E05FE40E94490388238CF0C801FF
:1000B000B70120E030E040E05FE40E94C1010E940F
:1000C000A9039B01AC01205030404040504806C07D
:1000D000C801B7010E94A9039B01AC01B901CA0183
:1000E0001F910F91FF90EF900895A0E0B0E0EBE733
:1000F000F0E00C94C80FDC012B01FA019C919230C6
:1001000008F439C1EB018881823008F433C194309E
:1001100069F4843009F02FC111969C91119789815F
:10012000981709F428C1A0E6B0E025C1843009F48D
:1001300021C18230A9F4923009F01DC19A01AD01AC
:1001400088E0EA010990AE01E90109929E0181501F
:10015000C1F7E201898111969C918923818308C1AD
:10016000923009F407C112962D903C901397EB0141
:100170008A819B811496AD90BD90CD90DC901797AD
:10018000EC80FD800E811F819101281B390BB90184
:1001900037FF04C066277727621B730B6032710537
:1001A0000CF061C0121613066CF537014801062EDB
:1001B00004C096948794779467940A94D2F721E0C8
:1001C00030E040E050E004C0220F331F441F551FB1
:1001D0006A95D2F721503040404050402E213F21B7
:1001E00040235123211531054105510521F021E01E
:1001F00030E040E050E079018A01E628F72808293C
:1002000019293CC0232BD1F1260E371E350146019A
:10021000062E04C096948794779467940A94D2F734
:1002200021E030E040E050E004C0220F331F441FC3
:10023000551F6A95D2F721503040404050402A2146
:100240003B214C215D21211531054105510521F04E
:1002500021E030E040E050E059016A01A628B728CB
:10026000C828D9280BC0821593052CF01C01AA249C
:10027000BB24650103C0EE24FF24870111969C91E5
:10028000D20111968C91981709F445C0992339F041
:10029000A80197012A193B094C095D0906C0A6016E
:1002A00095012E193F09400B510B57FD08C01182D3
:1002B0003382228224833583468357831DC081E0A5
:1002C00081833382228288279927DC01821B930B4A
:1002D000A40BB50B84839583A683B7830DC0220F2F
:1002E000331F441F551F24833583468357838281E0
:1002F000938101979383828324813581468157813D
:10030000DA01C9010197A109B1098F5F9F4FAF4F72
:10031000BF4328F30BC0918333822282EA0CFB1C7B
:100320000C1D1D1DE482F5820683178383E0808304
:10033000248135814681578157FF1AC0C901AA27F8
:1003400097FDA095BA2F81709070A070B0705695EF
:10035000479537952795822B932BA42BB52B848318
:100360009583A683B7838281938101969383828349
:10037000DF0101C0D201CD01CDB7DEB7E2E10C94BF
:10038000E40FA0E2B0E0E7ECF1E00C94D40F698355
:100390007A838B839C832D833E834F835887E9E048
:1003A000EE2EF12CEC0EFD1ECE010196B7010E943F
:1003B000D2048E010F5E1F4FCE010596B8010E9438
:1003C000D2048A8991E089278A8BC701B801AE01DE
:1003D000475E5F4F0E9475000E94FD03A096E6E015
:1003E0000C94F00FA0E2B0E0E8EFF1E00C94D40F31
:1003F00069837A838B839C832D833E834F835887C5
:10040000F9E0EF2EF12CEC0EFD1ECE010196B701A6
:100410000E94D2048E010F5E1F4FCE010596B801D7
:100420000E94D204C701B801AE01475E5F4F0E942F
:1004300075000E94FD03A096E6E00C94F00FA0E288
:10044000B0E0E5E2F2E00C94C80F69837A838B8315
:100450009C832D833E834F835887CE010196BE0136
:10046000675F7F4F0E94D204CE010596BE016F5E8A
:100470007F4F0E94D2049985923088F0898982301A
:10048000C8F0943019F4823051F404C0843029F457
:10049000923081F480E690E0C6C0923049F420E0CA
:1004A0009A858A89981321E02A87CE010996BBC0D4
:1004B000823049F420E09A858A89981321E02A8BBA
:1004C000CE014196B0C02D843E844F8458886D88FB
:1004D0007E888F88988CEE24FF248701AA24BB2471
:1004E000650140E050E060E070E0E0E0F0E0C10174
:1004F00081709070892BE9F0E60CF71C081D191D1E
:100500009A01AB012A0D3B1D4C1D5D1D80E090E062
:10051000A0E0B0E0E614F7040805190520F481E036
:1005200090E0A0E0B0E0BA01A901480F591F6A1F8E
:100530007B1FAA0CBB1CCC1CDD1C97FE08C081E0F5
:1005400090E0A0E0B0E0A82AB92ACA2ADB2A3196B6
:10055000E032F10549F0660C771C881C991C569412
:10056000479437942794C3CFFA85EA892B893C892D
:100570008B859C85280F391F2E5F3F4F17C0CA01FE
:1005800081709070892B61F016950795F794E79428
:1005900080E090E0A0E0B0E8E82AF92A0A2B1B2BC3
:1005A00076956795579547952F5F3F4F77FDE7CF36
:1005B0000CC0440F551F661F771F17FD4160EE0CDE
:1005C000FF1C001F111F21503040403090E05907A0
:1005D00090E0690790E4790760F32B8F3C8FDB0193
:1005E000CA018F779070A070B07080349105A1051A
:1005F000B10561F447FD0AC0E114F10401051105DC
:1006000029F0405C5F4F6F4F7F4F40781A8EFE1786
:1006100011F081E08A8F4D8F5E8F6F8F78A383E01A
:10062000898FCE0149960E94FD03A096E2E10C94C9
:10063000E40FA8E1B0E0EFE1F3E00C94D40F69839C
:100640007A838B839C832D833E834F83588789E0F5
:10065000E82EF12CEC0EFD1ECE010196B7010E9492
:10066000D2048E010F5E1F4FCE010596B8010E9485
:10067000D2048985823040F08989823028F0C70110
:10068000B8010E944A0501C08FEF6896E6E00C941D
:10069000F00FA8E1B0E0EFE4F3E00C94D40F69832D
:1006A0007A838B839C832D833E834F83588789E095
:1006B000E82EF12CEC0EFD1ECE010196B7010E9432
:1006C000D2048E010F5E1F4FCE010596B8010E9425
:1006D000D2048985823040F08989823028F0C701B0
:1006E000B8010E944A0501C08FEF6896E6E00C94BD
:1006F000F00FA8E1B0E0EFE7F3E00C94D40F6983CA
:100700007A838B839C832D833E834F83588789E034
:10071000E82EF12CEC0EFD1ECE010196B7010E94D1
:10072000D2048E010F5E1F4FCE010596B8010E94C4
:10073000D2048985823040F08989823028F0C7014F
:10074000B8010E944A0501C081E06896E6E00C9479
:10075000F00FACE0B0E0EFEAF3E00C94D80F69835F
:100760007A838B839C83CE010196BE016B5F7F4FA2
:100770000E94D2048D81823061F1823050F1843048
:1007800021F48E81882351F12EC02F81388537FDC9
:1007900020C06E812F3131051CF06623F9F023C093
:1007A0008EE190E0821B930B29853A854B855C8511
:1007B00004C056954795379527958A95D2F76623B5
:1007C000B1F050954095309521953F4F4F4F5F4F79
:1007D0000EC020E030E040E050E009C02FEF3FEFD6
:1007E0004FEF5FE704C020E030E040E050E8B9019F
:1007F000CA012C96E2E00C94F40FDF92EF92FF9284
:100800000F931F93FC01E480F58006811781D1804E
:100810008081823048F480E090E0A0E1B0E0E82AF6
:10082000F92A0A2B1B2BA5C0843009F49FC0823003
:1008300021F4EE24FF24870105C0E114F104010531
:10084000110519F4E0E0F0E096C0628173819FEF3A
:10085000623879070CF05BC022E83FEF261B370BAC
:100860002A3131052CF020E030E040E050E02AC091
:10087000B801A701022E04C0769567955795479554
:100880000A94D2F781E090E0A0E0B0E004C0880FC5
:10089000991FAA1FBB1F2A95D2F70197A109B10979
:1008A0008E219F21A023B1230097A105B10521F03E
:1008B00081E090E0A0E0B0E09A01AB01282B392B59
:1008C0004A2B5B2BDA01C9018F779070A070B07052
:1008D00080349105A105B10539F427FF09C0205CDA
:1008E0003F4F4F4F5F4F04C0215C3F4F4F4F5F4F13
:1008F000E0E0F0E02030A0E03A07A0E04A07A0E402
:100900005A0710F0E1E0F0E079018A0127C0603871
:10091000710564F5FB01E158FF4FD801C7018F77DE
:100920009070A070B07080349105A105B10539F4C4
:10093000E7FE0DC080E490E0A0E0B0E004C08FE3EB
:1009400090E0A0E0B0E0E80EF91E0A1F1B1F17FFA1
:1009500005C016950795F794E794319687E01695AC
:100960000795F794E7948A95D1F705C0EE24FF2404
:100970008701EFEFF0E06E2F679566276795902F60
:100980009F77D794DD24D7948E2F8695492F462BB9
:10099000582F5D29B701CA011F910F91FF90EF9069
:1009A000DF900895FC01DB01408151812281622F9B
:1009B0006F7770E0221F2227221F9381892F880FD3
:1009C000822B282F30E0991F9927991F11969C930D
:1009D000119721153105A9F54115510561057105DD
:1009E00011F482E037C082E89FEF13969C938E93B8
:1009F00012979A01AB0167E0220F331F441F551F66
:100A00006A95D1F783E08C930DC0220F331F441FEA
:100A1000551F12968D919C911397019713969C9355
:100A20008E931297203080E0380780E0480780E4FA
:100A3000580758F314962D933D934D935C93179755
:100A400008952F3F310579F4411551056105710570
:100A500019F484E08C93089564FF03C081E08C93C3
:100A600012C01C9210C02F57304013963C932E9307
:100A7000129783E08C9387E0440F551F661F771F02
:100A80008A95D1F7706414964D935D936D937C9322
:100A9000179708951F93DC01FB019C91923008F495
:100AA00047C08081823008F443C0943051F41196DD
:100AB0001C91843099F58181682F70E0611B710968
:100AC0003FC0843021F0923031F48230B9F181811D
:100AD000882389F12DC011961C9111978230F1F075
:100AE00081811817D9F412962D913C911397828128
:100AF00093818217930794F028173907BCF0149656
:100B00008D919D910D90BC91A02D248135814681C0
:100B10005781281739074A075B0718F4112341F05A
:100B20000AC082179307A407B50740F4112319F0F0
:100B300061E070E005C06FEF7FEF02C060E070E041
:100B4000CB011F910895DF93CF93CDB7DEB7A3E517
:100B5000B0E0E3E5F0E0808181608C93A3E5B0E054
:100B6000E3E5F0E080818D7F8C93A3E5B0E0E3E5E1
:100B7000F0E080818B7F8C93A3E5B0E0E3E5F0E0CB
:100B80008081877F8C93A3E5B0E0E3E5F0E080818E
:100B900080648C93A3E5B0E0E3E5F0E080818061C0
:100BA0008C93A3E5B0E0E3E5F0E0808180628C9374
:100BB000A5E4B0E0E5E4F0E0808181608C93A5E4F9
:100BC000B0E0E5E4F0E080818D7F8C93A5E4B0E0B7
:100BD000E5E4F0E080818B7F8C93A5E4B0E0E5E470
:100BE000F0E08081877F8C93A5E4B0E0E5E4F0E05D
:100BF000808180618C93A5E4B0E0E5E4F0E0808141
:100C000080628C93A5E4B0E0E5E4F0E0808180644C
:100C10008C93CF91DF910895DF93CF9300D0CDB720
:100C2000DEB789836A838981823531F481E060E0AF
:100C30004A810E94620708C089818C3429F481E0CE
:100C400061E04A810E9462070F900F90CF91DF917F
:100C50000895DF93CF9300D0CDB7DEB789836A8341
:100C60008981823529F4ECE5F0E08A81808307C030
:100C700089818C3421F4E3E4F0E08A8180830F9051
:100C80000F90CF91DF910895DF93CF9300D0CDB730
:100C9000DEB789836A838981823531F481E063E03C
:100CA0004A810E94610608C089818C3429F483E05E
:100CB00067E04A810E9461060F900F90CF91DF910B
:100CC0000895DF93CF93CDB7DEB72B970FB6F89487
:100CD000DEBF0FBECDBF89836A834B8389818823A2
:100CE000C1F58B81282F30E03B872A878A859B8539
:100CF000009731F02A853B8521303105B1F0D9C00C
:100D0000AAE3B0E0EAE3F0E08081482F8A81282F4F
:100D100030E081E090E0022E02C0880F991F0A9413
:100D2000E2F7809584238C93C4C0AAE3B0E0EAE3A1
:100D3000F0E08081482F8A81282F30E081E090E028
:100D4000022E02C0880F991F0A94E2F7842B8C931D
:100D5000B0C089818130C1F58B81282F30E039877F
:100D6000288788859985009731F028853985213035
:100D70003105B1F09EC0A7E3B0E0E7E3F0E0808189
:100D8000482F8A81282F30E081E090E0022E02C0B7
:100D9000880F991F0A94E2F7809584238C9389C069
:100DA000A7E3B0E0E7E3F0E08081482F8A81282FB5
:100DB00030E081E090E0022E02C0880F991F0A9473
:100DC000E2F7842B8C9375C089818230C1F58B81C9
:100DD000282F30E03F832E838E819F81009731F052
:100DE0002E813F8121303105B1F063C0A4E3B0E032
:100DF000E4E3F0E08081482F8A81282F30E081E011
:100E000090E0022E02C0880F991F0A94E2F78095A5
:100E100084238C934EC0A4E3B0E0E4E3F0E080814F
:100E2000482F8A81282F30E081E090E0022E02C016
:100E3000880F991F0A94E2F7842B8C933AC089811A
:100E40008330B9F58B81282F30E03D832C838C8152
:100E50009D81009731F02C813D8121303105B1F029
:100E600028C0A1E3B0E0E1E3F0E08081482F8A816F
:100E7000282F30E081E090E0022E02C0880F991FF9
:100E80000A94E2F7809584238C9313C0A1E3B0E029
:100E9000E1E3F0E08081482F8A81282F30E081E073
:100EA00090E0022E02C0880F991F0A94E2F7842B6B
:100EB0008C932B960FB6F894DEBF0FBECDBFCF91AB
:100EC000DF910895DF93CF93CDB7DEB72B970FB6A1
:100ED000F894DEBF0FBECDBF89836A834B838981BF
:100EE0008823C1F58B81282F30E03B872A878A85AC
:100EF0009B85009731F02A853B8521303105B1F083
:100F0000D9C0ABE3B0E0EBE3F0E08081482F8A8109
:100F1000282F30E081E090E0022E02C0880F991F58
:100F20000A94E2F7809584238C93C4C0ABE3B0E0CD
:100F3000EBE3F0E08081482F8A81282F30E081E0C8
:100F400090E0022E02C0880F991F0A94E2F7842BCA
:100F50008C93B0C089818130C1F58B81282F30E01E
:100F60003987288788859985009731F028853985C4
:100F700021303105B1F09EC0A8E3B0E0E8E3F0E035
:100F80008081482F8A81282F30E081E090E0022E76
:100F900002C0880F991F0A94E2F7809584238C93EE
:100FA00089C0A8E3B0E0E8E3F0E08081482F8A81BF
:100FB000282F30E081E090E0022E02C0880F991FB8
:100FC0000A94E2F7842B8C9375C089818230C1F535
:100FD0008B81282F30E03F832E838E819F81009765
:100FE00031F02E813F8121303105B1F063C0A5E39E
:100FF000B0E0E5E3F0E08081482F8A81282F30E0DF
:1010000081E090E0022E02C0880F991F0A94E2F757
:10101000809584238C934EC0A5E3B0E0E5E3F0E037
:101020008081482F8A81282F30E081E090E0022ED5
:1010300002C0880F991F0A94E2F7842B8C933AC060
:1010400089818330B9F58B81282F30E03D832C8353
:101050008C819D81009731F02C813D8121303105BB
:10106000B1F028C0A2E3B0E0E2E3F0E08081482FD5
:101070008A81282F30E081E090E0022E02C0880FA4
:10108000991F0A94E2F7809584238C9313C0A2E3FE
:10109000B0E0E2E3F0E08081482F8A81282F30E041
:1010A00081E090E0022E02C0880F991F0A94E2F7B7
:1010B000842B8C932B960FB6F894DEBF0FBECDBF5A
:1010C000CF91DF910895DF93CF9300D000D00F929E
:1010D000CDB7DEB78A836B838A81282F30E03D83CA
:1010E0002C834C815D814130510541F18C819D8182
:1010F0008230910534F42C813D812115310561F058
:1011000052C04C815D814230510551F18C819D81ED
:1011100083309105B9F147C0E9E3F0E08081282FE1
:1011200030E08B81882F90E0A90102C0559547954A
:101130008A95E2F7CA018170898335C0E6E3F0E061
:101140008081282F30E08B81882F90E0A90102C098
:10115000559547958A95E2F7CA018170898323C026
:10116000E3E3F0E08081282F30E08B81882F90E04E
:10117000A90102C0559547958A95E2F7CA01817089
:10118000898311C0E0E3F0E08081282F30E08B817B
:10119000882F90E0A90102C0559547958A95E2F7FE
:1011A000CA018170898389810F900F900F900F90F1
:1011B0000F90CF91DF910895DF93CF9300D000D0AF
:1011C00000D0CDB7DEB789836A838A81882379F519
:1011D0008981282F30E03E832D838D819E8181304F
:1011E0009105C9F02D813E81223031052CF48D818D
:1011F0009E81009761F050C02D813E8122303105E3
:1012000071F08D819E818330910569F045C0EAE3DC
:10121000F0E0108241C0E7E3F0E010823DC0E4E37B
:10122000F0E0108239C0E1E3F0E0108235C08A813D
:10123000813091F58981282F30E03C832B838B818D
:101240009C8181309105D1F02B813C812230310588
:101250002CF48B819C81009761F01EC02B813C8116
:101260002230310581F08B819C818330910581F0A2
:1012700013C0EAE3F0E08FEF80830EC0E7E3F0E015
:101280008FEF808309C0E4E3F0E08FEF808304C038
:10129000E1E3F0E08FEF808326960FB6F894DEBF8F
:1012A0000FBECDBFCF91DF910895DF93CF9300D0D4
:1012B00000D0CDB7DEB789836A838981282F30E0DB
:1012C0003C832B838B819C8181309105D1F02B81D4
:1012D0003C81223031052CF48B819C81009761F098
:1012E0001EC02B813C812230310581F08B819C8195
:1012F0008330910581F013C0EBE3F0E08A818083B5
:101300000EC0E8E3F0E08A81808309C0E5E3F0E005
:101310008A81808304C0E2E3F0E08A8180830F90B9
:101320000F900F900F90CF91DF910895DF93CF939F
:10133000CDB7DEB728970FB6F894DEBF0FBECDBF8E
:1013400089836A838981813009F063C0ABE5B0E0AD
:10135000EBE5F0E0808180688C938A81282F30E073
:1013600038872F838F8198858230910529F12F81CD
:1013700038852330310534F48F819885813091058B
:1013800061F0D7C02F8138852330310521F18F815D
:1013900098858430910571F1CCC0A5E5B0E0E5E514
:1013A000F0E0808184608C93A5E5B0E0E5E5F0E0B5
:1013B000808188608C93BDC0A5E5B0E0E5E5F0E0F4
:1013C00080818B7F8C93A5E5B0E0E5E5F0E080813E
:1013D00088608C93AEC0A5E5B0E0E5E5F0E08081E3
:1013E00084608C93A5E5B0E0E5E5F0E08081877F3F
:1013F0008C939FC0A5E5B0E0E5E5F0E080818B7FB0
:101400008C93A5E5B0E0E5E5F0E08081877F8C93E3
:1014100090C08981882309F063C0ABE5B0E0EBE5BB
:10142000F0E0808180648C938A81282F30E03E83B5
:101430002D838D819E818230910529F12D813E8100
:101440002330310534F48D819E818130910561F026
:1014500070C02D813E812330310521F18D819E8127
:101460008430910571F165C0A5E5B0E0E5E5F0E0F7
:10147000808181608C93A5E5B0E0E5E5F0E08081B6
:1014800082608C9356C0A5E5B0E0E5E5F0E0808190
:101490008E7F8C93A5E5B0E0E5E5F0E08081826089
:1014A0008C9347C0A5E5B0E0E5E5F0E08081816080
:1014B0008C93A5E5B0E0E5E5F0E080818D7F8C932D
:1014C00038C0A5E5B0E0E5E5F0E080818E7F8C9343
:1014D000A5E5B0E0E5E5F0E080818D7F8C9329C043
:1014E0008981823031F5ABE5B0E0EBE5F0E0808159
:1014F00080628C938A81282F30E03C832B838B8100
:101500009C818130910531F02B813C812230310565
:1015100049F00FC0A4E5B0E0E4E5F0E0808180642C
:101520008C9307C0A4E5B0E0E4E5F0E080818F7B18
:101530008C9328960FB6F894DEBF0FBECDBFCF9127
:10154000DF910895DF93CF9300D0CDB7DEB78A83C4
:101550008A81882351F4EAE5F0E0808182958695BE
:10156000869583708170898316C08A81813041F4A9
:10157000EAE5F0E08081881F8827881F89830BC0F7
:101580008A81823041F4EAE5F0E080818295869597
:1015900087708170898389810F900F90CF91DF913F
:1015A0000895DF93CF93CDB7DEB7E9E2F0E08DE4A5
:1015B0008083E0E4F0E01082E0E4F0E086E88083FD
:1015C000EAE2F0E088E18083CF91DF910895DF9334
:1015D000CF9300D0CDB7DEB79A838983EBE2F0E0FA
:1015E0008081882F90E0807290700097B9F3ECE2D0
:1015F000F0E0898180830F900F90CF91DF91089563
:10160000DF93CF930F92CDB7DEB7EBE2F0E08081AE
:101610008823DCF7ECE2F0E08081898389810F90F8
:10162000CF91DF910895DF93CF9300D00F92CDB784
:10163000DEB79B838A83198210C08981282F30E00E
:101640008A819B81FC01E20FF31F8081882F90E04B
:101650000E94E70A89818F5F89838981282F30E082
:101660008A819B81FC01E20FF31F8081882329F787
:101670000F900F900F90CF91DF910895DF93CF934C
:1016800000D00F92CDB7DEB79B838A838A819B817E
:1016900023E0893E920708F472C08A819B8128EE7C
:1016A00033E0B9010E94B40FCB0189838981882F6F
:1016B00090E0C0960E94E70A8981282F30E088E1F7
:1016C0009CEFAC01249FC001259F900D349F900D8D
:1016D00011249C018A819B81820F931F9B838A83A3
:1016E0008A819B8124E630E0B9010E94B40FCB01CE
:1016F00089838981882F90E0C0960E94E70A8981BA
:10170000282F30E08CE99FEFAC01249FC001259F7A
:10171000900D349F900D11249C018A819B81820F32
:10172000931F9B838A838A819B812AE030E0B901E1
:101730000E94B40FCB0189838981882F90E09C019E
:10174000220F331FC901880F991F880F991F820F1D
:10175000931F909581959F4F9C018A819B81820F59
:10176000931F9B838A838981882F90E0C0960E9473
:10177000E70A8A819B81C0960E94E70A8FC08A810E
:101780009B818436910508F44FC08A819B8124E6B1
:1017900030E0B9010E94B40FCB0189838981882F81
:1017A00090E0C0960E94E70A8981282F30E08CE9FA
:1017B0009FEFAC01249FC001259F900D349F900D99
:1017C00011249C018A819B81820F931F9B838A83B2
:1017D0008A819B812AE030E0B9010E94B40FCB01DD
:1017E00089838981882F90E09C01220F331FC901D2
:1017F000880F991F880F991F820F931F90958195CD
:101800009F4F9C018A819B81820F931F9B838A83B8
:101810008981882F90E0C0960E94E70A8A819B8187
:10182000C0960E94E70A3AC08A819B818B3091055D
:1018300060F18A819B812AE030E0B9010E94B40FF7
:10184000CB0189838981882F90E09C01220F331F6F
:10185000C901880F991F880F991F820F931F9095B8
:1018600081959F4F9C018A819B81820F931F9B834F
:101870008A838981882F90E0C0960E94E70A8A8136
:101880009B81C0960E94E70A09C08A819B810097CC
:1018900029F08A819B81C0960E94E70A0F900F90E1
:1018A0000F90CF91DF910895DF93CF930F92CDB733
:1018B000DEB7898383E790E00E94E70A8981882F59
:1018C00090E00E94E70A8FEF90E00E94E70A0F90F5
:1018D000CF91DF910895DF93CF930F92CDB7DEB70D
:1018E000898380E790E00E94E70A8981882F90E051
:1018F0000E94E70A8FEF90E00E94E70A0F90CF91D5
:10190000DF910895DF93CF93CDB7DEB783E062E038
:101910000E94630880936E0090916E008091720027
:10192000981781F080E060E00E946308982F809112
:101930006E00981721F082E50E946B0C03C08CE4C6
:101940000E946B0C83E062E00E9463088093720047
:10195000CF91DF910895DF93CF93CDB7DEB76C972A
:101960000FB6F894DEBF0FBECDBF0E94A3050E9444
:10197000D10A80E063E00E949609AFE5B0E0EFE5B0
:10198000F0E0808180688C9381E060E041E00E941B
:10199000610681E061E041E00E94610680E066E06E
:1019A00041E00E94610680E067E041E00E9461063C
:1019B00081E062E040E00E94610681E062E041E097
:1019C0000E94620782E061E00E94960980E060E088
:1019D00040E00E94610683E062E040E00E94610610
:1019E00083E060E040E00E94610683E061E041E066
:1019F0000E94610683E063E040E00E94610683E0AC
:101A000063E041E00E94620781E061E00E94960984
:101A100081E067E040E00E94610681E067E041E02C
:101A20000E946207EFE4F0E01082AEE4B0E0EEE482
:101A3000F0E0808188608C93AEE4B0E0EEE4F0E00A
:101A400080818E7F8C93AEE4B0E0EEE4F0E08081A4
:101A50008D7F8C93AEE4B0E0EEE4F0E080818B7F8C
:101A60008C93EAE4F0E08EE996EB91838083A9E51C
:101A7000B0E0E9E5F0E0808180618C9383E062E092
:101A80000E9463088093720082E561E00E940C0668
:101A90008CE461E00E940C0608C082E561E00E94CF
:101AA000440682E564E60E94290681E067E00E9420
:101AB0006308813091F3109271001092700082E5FA
:101AC00061E00E94440682E56FEF0E94290608C08B
:101AD0008CE461E00E9444068CE464E60E942906DE
:101AE000809170009091710023E18938920780F312
:101AF00010927100109270008CE461E00E94440624
:101B00008CE46FEF0E94290682E561E00E940C06DA
:101B10008CE461E00E940C060E94000B80936F0031
:101B200080916F00813309F0A9C008C08CE461E0A6
:101B30000E9444068CE460E00E94290680917000B7
:101B4000909171002BE18935920780F38CE461E07C
:101B50000E9444068CE46FEF0E94290610927100E7
:101B60001092700082E560E00E94440682E560E029
:101B70000E940C068CE460E00E940C0680E066E0A7
:101B800041E00E946207ECE5F0E082E3808380E0C0
:101B900090E0AAEFB3E4898F9A8FAB8FBC8F698DE9
:101BA0007A8D8B8D9C8D20E030E84BE355E40E94CC
:101BB0001F02DC01CB018D8B9E8BAF8BB88F6D89A3
:101BC0007E898F89988D20E030E040E85FE30E94B5
:101BD000790388232CF481E090E09C8B8B8B3FC0B1
:101BE0006D897E898F89988D20E03FEF4FE757E41C
:101BF0000E94190318164CF5698D7A8D8B8D9C8D7A
:101C000020E030E040E251E40E941F02DC01CB0101
:101C1000BC01CD010E944900DC01CB019C8B8B8B68
:101C20000FC08CE291E09A8B898B89899A89019700
:101C3000F1F79A8B898B8B899C8901979C8B8B8B75
:101C40008B899C89009769F714C06D897E898F897B
:101C5000988D0E944900DC01CB019C8B8B8B8B897A
:101C60009C89988B8F878F8598890197F1F7988B3E
:101C70008F8780E066E040E00E94620780916F00FD
:101C8000823309F041CF82E561E00E94440608C03A
:101C900082E561E00E94440682E567E30E9429062E
:101CA000809170009091710023E28932920730F4A4
:101CB00081E067E00E946308813051F382E561E0D2
:101CC0000E94440682E56FEF0E942906109271007F
:101CD000109270008CE460E00E94440682E560E0AF
:101CE0000E940C068CE460E00E940C0680E067E035
:101CF00041E00E946207ECE5F0E082E3808380E04F
:101D000090E0AAEFB3E48B879C87AD87BE876B8595
:101D10007C858D859E8520E030E84BE355E40E946C
:101D20001F02DC01CB018F839887A987BA876F8157
:101D3000788589859A8520E030E040E85FE30E945D
:101D4000790388232CF481E090E09E838D833FC04B
:101D50006F81788589859A8520E03FEF4FE757E4CA
:101D60000E94190318164CF56B857C858D859E8520
:101D700020E030E040E251E40E941F02DC01CB0190
:101D8000BC01CD010E944900DC01CB019E838D8303
:101D90000FC08CE291E09C838B838B819C810197A7
:101DA000F1F79C838B838D819E8101979E838D8328
:101DB0008D819E81009769F714C06F817885898530
:101DC0009A850E944900DC01CB019E838D838D8121
:101DD0009E819A83898389819A810197F1F79A83F9
:101DE000898380E067E040E00E94620782E560E06E
:101DF0000E94440682E56FEF0E94290685CE1F925D
:101E00000F920FB60F9211242F933F934F935F932E
:101E10006F937F938F939F93AF93BF93EF93FF93B2
:101E2000DF93CF93CDB7DEB70E94820CCF91DF91C5
:101E3000FF91EF91BF91AF919F918F917F916F91A2
:101E40005F914F913F912F910F900FBE0F901F9078
:101E500018951F920F920FB60F9211248F939F9394
:101E6000AF93BF93EF93FF93DF93CF93CDB7DEB7DD
:101E70008091680090916900019690936900809329
:101E80006800AEE4B0E0EEE4F0E080818E7F8C93F9
:101E9000AEE4B0E0EEE4F0E080818D7F8C93AEE4C0
:101EA000B0E0EEE4F0E0808184608C93CF91DF912C
:101EB000FF91EF91BF91AF919F918F910F900FBEC6
:101EC0000F901F9018951F920F920FB60F9211242A
:101ED0002F933F934F935F936F937F938F939F9332
:101EE000AF93BF93EF93FF93DF93CF93CDB7DEB75D
:101EF000809168009091690024E630E0B9010E9469
:101F0000B40FCB010E94540CCF91DF91FF91EF9160
:101F1000BF91AF919F918F917F916F915F914F9101
:101F20003F912F910F900FBE0F901F9018951F9209
:101F30000F920FB60F9211248F939F93DF93CF933D
:101F4000CDB7DEB7809170009091710001969093AB
:101F5000710080937000CF91DF919F918F910F90CE
:101F60000FBE0F901F901895AA1BBB1B51E107C015
:101F7000AA1FBB1FA617B70710F0A61BB70B881F19
:101F8000991F5A95A9F780959095BC01CD010895A8
:101F90002F923F924F925F926F927F928F929F9279
:101FA000AF92BF92CF92DF92EF92FF920F931F9367
:101FB000CF93DF93CDB7DEB7CA1BDB0B0FB6F89418
:101FC000DEBF0FBECDBF09942A88398848885F8458
:101FD0006E847D848C849B84AA84B984C884DF80C9
:101FE000EE80FD800C811B81AA81B981CE0FD11DAD
:101FF0000FB6F894DEBF0FBECDBFED010895F89483
:02200000FFCF10
:082002000000000000000000D6
:00000001FF
